:020000040800F2
:10000000002800200D0600089D050008A305000833
:10001000A9050008AF050008B505000800000000AC
:10002000000000000000000000000000BB05000808
:10003000C705000800000000D3050008DF05000820
:100040005506000855060008550600085506000824
:100050005506000855060008550600085506000814
:100060005506000855060008550600085506000804
:1000700055060008550600085506000855060008F4
:1000800055060008550600085506000855060008E4
:1000900055060008550600085506000855060008D4
:1000A00055060008550600085506000855060008C4
:1000B000ED05000855060008000000005506000880
:1000C000550600080000000000000000550600086A
:1000D000000000005506000855060008000000005A
:1000E00055060008550600085506000800000000E7
:1000F0000000000000000000000000000000000000
:0C01000000000000000000005FF808F1A3
:10010C0010B5054C237833B9044B13B10448AFF345
:10011C0000800123237010BD0C00002000000000A3
:10012C007023000808B5034B1BB103490348AFF318
:10013C00008008BD000000001000002070230008A3
:10014C0080B500AF00F082FA00F009F800F00CF96D
:10015C0000F056F800F092F800F0DCF8FEE780B5FD
:10016C0094B000AF07F1280328220021184602F0B2
:10017C00F1F807F1140300221A605A609A60DA60F1
:10018C001A613B1D00221A605A609A60DA600223E1
:10019C00BB620123BB631023FB6300237B6407F169
:1001AC002803184600F066FF0346002B01D000F030
:1001BC000DF90F237B610023BB610023FB6100233E
:1001CC003B6200237B6207F114030021184601F007
:1001DC00D1F90346002B01D000F0F8F802237B6024
:1001EC000023FB603B1D184601F05EFB0346002B11
:1001FC0001D000F0EBF800BF5037BD4680BD0000C9
:10020C0080B584B000AF3B1D00221A605A609A6022
:10021C00184B194A1A60174B00229A60154B012291
:10022C001A73144B00221A75124B4FF46022DA61C8
:10023C00104B00225A600F4B01221A610D4800F03E
:10024C0067FA0346002B01D000F0C0F800237B6056
:10025C000123BB600023FB603B1D1946054800F0E1
:10026C002FFB0346002B01D000F0B0F800BF103775
:10027C00BD4680BD280000200024014080B586B01A
:10028C0000AF07F1080300221A605A609A60DA6026
:10029C003B4600221A605A601D4B4FF080421A6098
:1002AC001B4B41F63F725A60194B00229A60184B57
:1002BC000A22DA60164B00221A61154B00229A6151
:1002CC00134801F0A7FB0346002B01D000F07EF889
:1002DC004FF48053BB6007F1080319460C4801F03A
:1002EC00F0FC0346002B01D000F070F800233B60BB
:1002FC0000237B603B461946054801F0C1FE0346CE
:10030C00002B01D000F062F800BF1837BD4680BD4D
:10031C005800002080B500AF114B124A1A60104BE8
:10032C004FF416525A600E4B00229A600C4B00226E
:10033C00DA600B4B00221A61094B0C225A61084BF4
:10034C0000229A61064B0022DA61054801F002FF97
:10035C000346002B01D000F039F800BF80BD00BF70
:10036C00A00000200044004080B586B000AF07F12B
:10037C00080300221A605A609A60DA60114B9B697C
:10038C00104A43F0040393610E4B9B6903F0040382
:10039C007B607B68002220210B4800F053FE202359
:1003AC00BB600123FB6000233B6102237B6107F1EF
:1003BC0008031946044800F0CBFC00BF1837BD46B3
:1003CC0080BD00BF001002400008014080B400AFA7
:1003DC0072B600BFFEE7000080B485B000AF154BCD
:1003EC009B69144A43F001039361124B9B6903F020
:1003FC000103BB60BB680F4BDB690E4A43F08053B3
:10040C00D3610C4BDB6903F080537B607B680A4B38
:10041C005B68FB60FB6823F0E063FB60FB6843F008
:10042C008063FB60044AFB68536000BF1437BD4611
:10043C0080BC7047001002400000014080B588B0BD
:10044C0000AF786007F1100300221A605A609A60BE
:10045C00DA607B681B68144A934221D1134B9B6969
:10046C00124A43F400739361104B9B6903F40073BD
:10047C00FB60FB680D4B9B690C4A43F004039361D2
:10048C000A4B9B6903F00403BB60BB6801233B610F
:10049C0003237B6107F110031946054800F058FC53
:1004AC0000BF2037BD4680BD002401400010024033
:1004BC000008014080B584B000AF78607B681B6891
:1004CC00B3F1804F13D10C4BDB690B4A43F00103A2
:1004DC00D361094BDB6903F00103FB60FB6800226D
:1004EC0000211C2000F0FDFB1C2000F016FC00BFBE
:1004FC001037BD4680BD00BF0010024080B588B0EB
:10050C0000AF786007F1100300221A605A609A60FD
:10051C00DA607B681B681B4A93422FD11A4BDB694C
:10052C00194A43F40033D361174BDB6903F40033EE
:10053C00FB60FB68144B9B69134A43F00403936103
:10054C00114B9B6903F00403BB60BB6804233B6144
:10055C0002237B610323FB6107F1100319460B484F
:10056C0000F0F6FB08233B6100237B610023BB6199
:10057C0007F110031946054800F0EAFB00BF2037CD
:10058C00BD4680BD00440040001002400008014000
:10059C0080B400AFFEE780B400AFFEE780B400AFDC
:1005AC00FEE780B400AFFEE780B400AFFEE780B496
:1005BC0000AF00BFBD4680BC704780B400AF00BF29
:1005CC00BD4680BC704780B400AF00BFBD4680BC48
:1005DC00704780B500AF00F07FF800BF80BD000011
:1005EC0080B500AF024801F064FA00BF80BD00BFC7
:1005FC005800002080B400AF00BFBD4680BC7047DF
:10060C000C480D490D4A002302E0D458C450043361
:10061C00C4188C42F9D30A4A0A4C002301E0136037
:10062C000432A242FBD3FFF7E5FF01F06FFEFFF7A8
:10063C0087FD7047000000200C000020B823000844
:10064C000C000020E8000020FEE7000080B500AFA1
:10065C00084B1B68074A43F010031360032000F09B
:10066C0035FB0F2000F008F8FFF7B6FE0023184604
:10067C0080BD00BF0020024080B582B000AF786022
:10068C00124B1A68124B1B7819464FF47A73B3FB52
:10069C00F1F3B2FBF3F3184600F04DFB0346002BCD
:1006AC0001D001230EE07B680F2B0AD80022796859
:1006BC004FF0FF3000F015FB064A7B6813600023F7
:1006CC0000E0012318460837BD4680BD000000201D
:1006DC00080000200400002080B400AF054B1B78FC
:1006EC001A46054B1B681344034A136000BFBD46F2
:1006FC0080BC704708000020E400002080B400AFEC
:10070C00024B1B681846BD4680BC7047E4000020B5
:10071C0080B586B000AF78600023FB7500233B6189
:10072C000023BB600023FB607B68002B01D10123FD
:10073C00BEE07B689B68002B7B689B6A002B09D111
:10074C007B680022DA627B68002283F824207868B8
:10075C00FFF774FE786800F0ABF90346FB757B6815
:10076C009B6A03F01003002B40F09980FB7D002B5B
:10077C0040F095807B689B6A23F4885323F0020336
:10078C0043F002027B689A627B685A687B68DB697B
:10079C001A437B681B7B5B001343BA681343BB6033
:1007AC007B689B68B3F5807F03D07B689B68012BCB
:1007BC0002D14FF4807300E000233A6913433B618C
:1007CC007B681B7D012B19D17B681B7B002B09D10E
:1007DC007B689B69013B5A033B69134343F40063F9
:1007EC003B610BE07B689B6A43F020027B689A625A
:1007FC007B68DB6A43F001027B68DA627B681B680A
:10080C005B6823F469417B681B683A690A435A6048
:10081C007B681B689A68284B13407A681268B96821
:10082C000B4393607B689B68B3F5807F03D07B6838
:10083C009B68012B04D17B681B69013B1B05FB608A
:10084C007B681B68DB6A23F470017B681B68FA68A1
:10085C000A43DA627B681B689A68184B1340BA68C3
:10086C009A420BD17B680022DA627B689B6A23F088
:10087C00030343F001027B689A6218E07B689B6A71
:10088C0023F0120343F010027B689A627B68DB6AE8
:10089C0043F001027B68DA620123FB7507E07B6899
:1008AC009B6A43F010027B689A620123FB75FB7D07
:1008BC0018461837BD4680BDFDF7E1FFFE0E1FFF41
:1008CC0080B485B000AF786039600023FB730023DF
:1008DC00BB607B6893F82430012B01D10223DCE050
:1008EC007B68012283F824203B685B68062B1CD8AC
:1008FC007B681B68596B3B685A6813469B00134412
:10090C00053B1F2202FA03F3DB4319403B681868CE
:10091C003B685A6813469B001344053B00FA03F2EC
:10092C007B681B680A435A633CE03B685B680C2B92
:10093C001CD87B681B68196B3B685A6813469B0074
:10094C001344233B1F2202FA03F3DB4319403B6899
:10095C0018683B685A6813469B001344233B00FA03
:10096C0003F27B681B680A431A631BE07B681B68F5
:10097C00D96A3B685A6813469B001344413B1F22BB
:10098C0002FA03F3DB4319403B6818683B685A686A
:10099C0013469B001344413B00FA03F27B681B682F
:1009AC000A43DA623B681B68092B1CD97B681B68FD
:1009BC00D9683B681A6813465B0013441E3B072238
:1009CC0002FA03F3DB4319403B6898683B681A68EA
:1009DC0013465B0013441E3B00FA03F27B681B6852
:1009EC000A43DA6019E07B681B6819693B681A686E
:1009FC0013465B001344072202FA03F3DB4319404E
:100A0C003B6898683B681A6813465B00134400FA0D
:100A1C0003F27B681B680A431A613B681B68102B46
:100A2C0003D03B681B68112B32D17B681B681D4AB5
:100A3C00934225D17B681B689B6803F40003002B51
:100A4C0026D17B681B689A687B681B6842F400029D
:100A5C009A603B681B68102B1AD1134B1B68134A06
:100A6C00A2FB03239A0C13469B0013445B00BB6050
:100A7C0002E0BB68013BBB60BB68002BF9D107E00F
:100A8C007B689B6A43F020027B689A620123FB73AC
:100A9C007B68002283F82420FB7B18461437BD4664
:100AAC0080BC7047002401400000002083DE1B4303
:100ABC0080B584B000AF78600023FB607B681B6856
:100ACC009B6803F00103012B2ED17B681B689A688D
:100ADC007B681B6822F001029A60FFF70FFEF8603A
:100AEC001BE0FFF70BFE0246FB68D31A022B14D94E
:100AFC007B681B689B6803F00103012B0DD17B689D
:100B0C009B6A43F010027B689A627B68DB6A43F055
:100B1C0001027B68DA62012307E07B681B689B6833
:100B2C0003F00103012BDCD0002318461037BD461F
:100B3C0080BD000080B485B000AF78607B6803F0A6
:100B4C000703FB600C4BDB68BB60BA684FF6FF0316
:100B5C001340BB60FB681A02BB68134343F0BF63CE
:100B6C0043F40033BB60044ABB68D36000BF143746
:100B7C00BD4680BC704700BF00ED00E080B400AF04
:100B8C00044BDB681B0A03F007031846BD4680BC08
:100B9C00704700BF00ED00E080B483B000AF0346A7
:100BAC00FB7197F90730002B0BDBFB7903F01F026D
:100BBC00064997F907305B09012000FA02F241F867
:100BCC00232000BF0C37BD4680BC704700E100E01D
:100BDC0080B483B000AF03463960FB7197F90730DE
:100BEC00002B0ADB3B68DAB20C4997F9073012018B
:100BFC00D2B20B4483F800230AE03B68DAB208490E
:100C0C00FB7903F00F03043B1201D2B20B441A76AA
:100C1C0000BF0C37BD4680BC704700BF00E100E050
:100C2C0000ED00E080B489B000AFF860B9607A6084
:100C3C00FB6803F00703FB61FB69C3F10703042B9B
:100C4C0028BF0423BB61FB690433062B02D9FB6963
:100C5C00033B00E000237B614FF0FF32BB6902FADB
:100C6C0003F3DA43BB681A407B699A404FF0FF31BB
:100C7C007B6901FA03F3D9437B680B401343184695
:100C8C002437BD4680BC704780B582B000AF786019
:100C9C007B68013BB3F1807F01D301230FE00A4A4B
:100CAC007B68013B53600F214FF0FF30FFF790FF43
:100CBC00054B00229A60044B07221A600023184649
:100CCC000837BD4680BD00BF10E000E080B582B0A3
:100CDC0000AF78607868FFF72DFF00BF0837BD467E
:100CEC0080BD80B586B000AF0346B9607A60FB73F7
:100CFC0000237B61FFF742FF78617A68B9687869F5
:100D0C00FFF790FF024697F90F3011461846FFF790
:100D1C005FFF00BF1837BD4680BD80B582B000AF05
:100D2C000346FB7197F907301846FFF735FF00BFF4
:100D3C000837BD4680BD80B582B000AF786078685A
:100D4C00FFF7A2FF034618460837BD4680BD0000DA
:100D5C0080B48BB000AF7860396000237B620023D5
:100D6C003B6248E101227B6A02FA03F3FB613B68B8
:100D7C001B68FA691340BB61BA69FB699A4240F07F
:100D8C0037813B685B68A34A93425ED0A14A934289
:100D9C0075D8A14A934258D09F4A93426FD89F4A24
:100DAC00934252D09D4A934269D89D4A93424CD06B
:100DBC009B4A934263D89B4A934246D0994A9342AA
:100DCC005DD8122B2AD8122B59D801A252F823F035
:100DDC00570E0008310E0008430E0008850E00085F
:100DEC008B0E00088B0E00088B0E00088B0E000873
:100DFC008B0E00088B0E00088B0E00088B0E000863
:100E0C008B0E00088B0E00088B0E00088B0E000852
:100E1C008B0E0008390E00084D0E0008824A9342D2
:100E2C0013D02CE03B68DB683B6229E03B68DB6855
:100E3C0004333B6224E03B68DB6808333B621FE011
:100E4C003B68DB680C333B621AE03B689B68002B09
:100E5C0002D104233B6213E03B689B68012B05D154
:100E6C0008233B627B68FA691A6109E008233B623C
:100E7C007B68FA695A6103E000233B6200E000BF23
:100E8C00BB69FF2B01D87B6801E07B6804337B6175
:100E9C00BB69FF2B02D87B6A9B0002E07B6A083B94
:100EAC009B003B617B691A680F213B6901FA03F3D4
:100EBC00DB431A40396A3B6901FA03F31A437B6935
:100ECC001A603B685B6803F08053002B00F0908045
:100EDC00564B9B69554A43F001039361534B9B69F5
:100EEC0003F00103BB60BB68514A7B6A9B08023369
:100EFC0052F82330FB607B6A03F003039B000F2244
:100F0C0002FA03F3DB43FA681340FB607B68494A3F
:100F1C0093420DD07B68484A934207D07B68474A7E
:100F2C00934201D1022304E0032302E0012300E0F9
:100F3C0000237A6A02F0030292009340FA6813438A
:100F4C00FB603B497B6A9B080233FA6841F823201B
:100F5C003B685B6803F48033002B06D0384B1A686F
:100F6C003749BB6913430B6006E0354B1A68BB6904
:100F7C00DB43334913400B603B685B6803F400337D
:100F8C00002B06D02E4B5A682D49BB6913434B607E
:100F9C0006E02B4B5A68BB69DB43294913404B6075
:100FAC003B685B6803F48013002B06D0244B9A68D3
:100FBC002349BB6913438B6006E0214B9A68BB69DC
:100FCC00DB431F4913408B603B685B6803F40013E1
:100FDC00002B06D01A4BDA681949BB691343CB6056
:100FEC0006E0174BDA68BB69DB4315491340CB604D
:100FFC007B6A01337B623B681A687B6A22FA03F3D3
:10100C00002B7FF4AFAE00BF00BF2C37BD4680BCB9
:10101C00704700BF00003210000031100000221099
:10102C0000002110000012100000111000100240EE
:10103C000000014000080140000C0140001001407C
:10104C000004014080B483B000AF78600B467B8015
:10105C0013467B707B78002B03D07A887B681A61EF
:10106C0003E07B881A047B681A6100BF0C37BD460D
:10107C0080BC704780B586B000AF78607B68002B71
:10108C0001D101236CE27B681B6803F00103002B88
:10109C0000F08780924B5B6803F00C03042B0CD0A0
:1010AC008F4B5B6803F00C03082B12D18C4B5B68E5
:1010BC0003F48033B3F5803F0BD1894B1B6803F4E9
:1010CC000033002B6CD07B685B68002B68D101234C
:1010DC0046E27B685B68B3F5803F06D1804B1B68AA
:1010EC007F4A43F4803313602EE07B685B68002BEF
:1010FC000CD17B4B1B687A4A23F480331360784BFA
:10110C001B68774A23F4802313601DE07B685B68BF
:10111C00B3F5A02F0CD1724B1B68714A43F480239A
:10112C0013606F4B1B686E4A43F4803313600BE003
:10113C006B4B1B686A4A23F480331360684B1B6843
:10114C00674A23F4802313607B685B68002B13D001
:10115C00FFF7D4FA386108E0FFF7D0FA02463B6992
:10116C00D31A642B01D90323FAE15D4B1B6803F4FA
:10117C000033002BF0D014E0FFF7C0FA386108E020
:10118C00FFF7BCFA02463B69D31A642B01D903233F
:10119C00E6E1534B1B6803F40033002BF0D100E065
:1011AC0000BF7B681B6803F00203002B63D04C4B21
:1011BC005B6803F00C03002B0BD0494B5B6803F00E
:1011CC000C03082B1CD1464B5B6803F48033002BBB
:1011DC0016D1434B1B6803F00203002B05D07B6830
:1011EC001B69012B01D00123BAE13D4B1B6823F095
:1011FC00F8027B685B69DB00394913430B603AE00A
:10120C007B681B69002B20D0364B01221A60FFF73C
:10121C0075FA386108E0FFF771FA02463B69D31A98
:10122C00022B01D903239BE12D4B1B6803F0020316
:10123C00002BF0D02A4B1B6823F0F8027B685B690B
:10124C00DB00274913430B6015E0264B00221A6084
:10125C00FFF754FA386108E0FFF750FA02463B6991
:10126C00D31A022B01D903237AE11D4B1B6803F01F
:10127C000203002BF0D17B681B6803F00803002BE2
:10128C003AD07B689B69002B19D0174B01221A604E
:10129C00FFF734FA386108E0FFF730FA02463B6991
:1012AC00D31A022B01D903235AE10D4B5B6A03F0CD
:1012BC000203002BF0D0012000F0D8FA1CE00A4BFE
:1012CC0000221A60FFF71AFA38610FE0FFF716FADE
:1012DC0002463B69D31A022B08D9032340E100BF15
:1012EC000010024000004242800442429E4B5B6A66
:1012FC0003F00203002BE9D17B681B6803F00403A5
:10130C00002B00F0A6800023FB75974BDB6903F0E4
:10131C008053002B0DD1944BDB69934A43F08053DF
:10132C00D361914BDB6903F08053BB60BB68012335
:10133C00FB758E4B1B6803F48073002B18D18B4B01
:10134C001B688A4A43F480731360FFF7D7F938613E
:10135C0008E0FFF7D3F902463B69D31A642B01D995
:10136C000323FDE0814B1B6803F48073002BF0D04A
:10137C007B68DB68012B06D17B4B1B6A7A4A43F0F6
:10138C00010313622DE07B68DB68002B0CD1764BDC
:10139C001B6A754A23F001031362734B1B6A724A72
:1013AC0023F0040313621CE07B68DB68052B0CD173
:1013BC006D4B1B6A6C4A43F0040313626A4B1B6A45
:1013CC00694A43F0010313620BE0674B1B6A664AE0
:1013DC0023F001031362644B1B6A634A23F004037A
:1013EC0013627B68DB68002B15D0FFF787F9386137
:1013FC000AE0FFF783F902463B69D31A41F28832BF
:10140C00934201D90323ABE0574B1B6A03F0020351
:10141C00002BEED014E0FFF771F938610AE0FFF70A
:10142C006DF902463B69D31A41F28832934201D9D5
:10143C00032395E04C4B1B6A03F00203002BEED107
:10144C00FB7D012B05D1484BDB69474A23F08053C8
:10145C00D3617B68DB69002B00F08180424B5B68B9
:10146C0003F00C03082B61D07B68DB69022B46D19F
:10147C003F4B00221A60FFF741F9386108E0FFF793
:10148C003DF902463B69D31A022B01D9032367E0CD
:10149C00354B1B6803F00073002BF0D17B681B6A83
:1014AC00B3F5803F08D1304B5B6823F400327B6886
:1014BC009B682D4913434B602B4B5B6823F47412D0
:1014CC007B68196A7B685B6A0B43274913434B6043
:1014DC00274B01221A60FFF711F9386108E0FFF77A
:1014EC000DF902463B69D31A022B01D9032337E0CD
:1014FC001D4B1B6803F00073002BF0D02FE01C4B2E
:10150C0000221A60FFF7FAF8386108E0FFF7F6F8E6
:10151C0002463B69D31A022B01D9032320E0124B5C
:10152C001B6803F00073002BF0D118E07B68DB69BB
:10153C00012B01D1012313E00B4B5B68FB60FB68B3
:10154C0003F480327B681B6A9A4206D1FB6803F471
:10155C0070127B685B6A9A4201D0012300E0002381
:10156C0018461837BD4680BD001002400070004080
:10157C006000424280B584B000AF786039607B680F
:10158C00002B01D10123D0E06A4B1B6803F0070349
:10159C003A689A4210D9674B1B6823F007026549D9
:1015AC003B6813430B60634B1B6803F007033A68FB
:1015BC009A4201D00123B8E07B681B6803F0020358
:1015CC00002B20D07B681B6803F00403002B05D094
:1015DC00594B5B68584A43F4E06353607B681B6863
:1015EC0003F00803002B05D0534B5B68524A43F4BD
:1015FC0060535360504B5B6823F0F0027B689B6830
:10160C004D4913434B607B681B6803F00103002BAF
:10161C0040D07B685B68012B07D1474B1B6803F4F8
:10162C000033002B15D101237FE07B685B68022B14
:10163C0007D1414B1B6803F00073002B09D1012328
:10164C0073E03D4B1B6803F00203002B01D1012317
:10165C006BE0394B5B6823F003027B685B683649AF
:10166C0013434B60FFF74AF8F8600AE0FFF746F8BF
:10167C000246FB68D31A41F28832934201D9032304
:10168C0053E02D4B5B6803F00C027B685B689B009E
:10169C009A42EBD1274B1B6803F007033A689A4236
:1016AC0010D2244B1B6823F0070222493B681343DA
:1016BC000B60204B1B6803F007033A689A4201D079
:1016CC00012332E07B681B6803F00403002B08D075
:1016DC00194B5B6823F4E0627B68DB6816491343A3
:1016EC004B607B681B6803F00803002B09D0124B7E
:1016FC005B6823F460527B681B69DB000E49134363
:10170C004B6000F021F802460B4B5B681B0903F0A1
:10171C000F030A49CB5C22FA03F3094A1360094B05
:10172C001B681846FEF7A8FF002318461037BD4665
:10173C0080BD00BF0020024000100240982300082A
:10174C00000000200400002090B48AB000AF2A4BA7
:10175C003C1D0FCB84E80F0040F201233B8000239B
:10176C00FB610023BB6100237B6200237B610023B0
:10177C003B62224B5B68FB61FB6903F00C03042B9F
:10178C0002D0082B03D02DE01D4B3B622DE0FB69F2
:10179C009B0C03F00F0307F12802134413F8243CAD
:1017AC007B61FB6903F48033002B13D0134B5B6814
:1017BC005B0C03F0010307F12802134413F8283CD7
:1017CC00BB617B690E4A02FB03F2BB69B2FBF3F30C
:1017DC007B6204E07B690B4A02FB03F37B627B6A4E
:1017EC003B6202E0064B3B6200BF3B6A184628375F
:1017FC00BD4690BC704700BF882300080010024013
:10180C0000127A0000093D0080B400AF024B1B6847
:10181C001846BD4680BC70470000002080B500AF64
:10182C00FFF7F2FF0246054B5B681B0A03F0070348
:10183C000349CB5C22FA03F3184680BD001002402A
:10184C00A823000880B500AFFFF7DEFF0246054B6A
:10185C005B68DB0A03F007030349CB5C22FA03F352
:10186C00184680BD00100240A823000880B485B043
:10187C0000AF78600A4B1B680A4AA2FB03235B0A81
:10188C007A6802FB03F3FB6000BFFB685A1EFA6028
:10189C00002BF9D100BF00BF1437BD4680BC704788
:1018AC0000000020D34D621080B586B000AF786088
:1018BC0000233B610023FB607B681B6803F0010382
:1018CC00002B7DD00023FB754F4BDB6903F080535D
:1018DC00002B0DD14C4BDB694B4A43F08053D36149
:1018EC00494BDB6903F08053BB60BB680123FB757C
:1018FC00464B1B6803F48073002B18D1434B1B68B9
:10190C00424A43F480731360FEF7F8FE386108E036
:10191C00FEF7F4FE02463B69D31A642B01D903236C
:10192C006DE03A4B1B6803F48073002BF0D0364B00
:10193C001B6A03F44073FB60FB68002B2ED07B68A2
:10194C005B6803F44073FA689A4227D02E4B1B6AEB
:10195C0023F44073FB602E4B01221A602C4B0022A7
:10196C001A60294AFB681362FB6803F00103002B21
:10197C0014D0FEF7C3FE38610AE0FEF7BFFE024644
:10198C003B69D31A41F28832934201D9032336E0E2
:10199C001D4B1B6A03F00203002BEED01A4B1B6A83
:1019AC0023F440727B685B68174913430B62FB7D21
:1019BC00012B05D1144BDB69134A23F08053D361FF
:1019CC007B681B6803F00203002B08D00E4B5B688E
:1019DC0023F440427B689B680B4913434B607B6844
:1019EC001B6803F01003002B08D0074B5B6823F433
:1019FC0080027B68DB68044913434B600023184664
:101A0C001837BD4680BD00BF00100240007000407A
:101A1C004004424280B582B000AF78607B68002BF6
:101A2C0001D1012341E07B6893F83D30DBB2002B00
:101A3C0006D17B68002283F83C207868FEF73AFDDB
:101A4C007B68022283F83D207B681A687B6804332C
:101A5C001946104600F026FA7B68012283F84620CE
:101A6C007B68012283F83E207B68012283F83F20AB
:101A7C007B68012283F840207B68012283F8412097
:101A8C007B68012283F842207B68012283F8432083
:101A9C007B68012283F844207B68012283F845206F
:101AAC007B68012283F83D20002318460837BD4689
:101ABC0080BD80B582B000AF78607B681B681B6905
:101ACC0003F00203022B22D17B681B68DB6803F056
:101ADC000203022B1BD17B681B686FF002021A6198
:101AEC007B6801221A777B681B689B6903F00303F0
:101AFC00002B03D0786800F0BAF905E0786800F0A4
:101B0C00ADF9786800F0BCF97B6800221A777B6825
:101B1C001B681B6903F00403042B22D17B681B6830
:101B2C00DB6803F00403042B1BD17B681B686FF08C
:101B3C0004021A617B6802221A777B681B689B6916
:101B4C0003F44073002B03D0786800F090F905E0A3
:101B5C00786800F083F9786800F092F97B680022CD
:101B6C001A777B681B681B6903F00803082B22D1CA
:101B7C007B681B68DB6803F00803082B1BD17B68B0
:101B8C001B686FF008021A617B6804221A777B6865
:101B9C001B68DB6903F00303002B03D0786800F0AB
:101BAC0066F905E0786800F059F9786800F068F992
:101BBC007B6800221A777B681B681B6903F0100393
:101BCC00102B22D17B681B68DB6803F01003102BF1
:101BDC001BD17B681B686FF010021A617B680822AE
:101BEC001A777B681B68DB6903F44073002B03D006
:101BFC00786800F03CF905E0786800F02FF9786817
:101C0C0000F03EF97B6800221A777B681B681B6921
:101C1C0003F00103012B0ED17B681B68DB6803F01A
:101C2C000103012B07D17B681B686FF001021A615D
:101C3C00786800F00AF97B681B681B6903F0800365
:101C4C00802B0ED17B681B68DB6803F08003802B34
:101C5C0007D17B681B686FF080021A61786800F00E
:101C6C0070FA7B681B681B6903F04003402B0ED194
:101C7C007B681B68DB6803F04003402B07D17B6853
:101C8C001B686FF040021A61786800F002F97B68FB
:101C9C001B681B6903F02003202B0ED17B681B688B
:101CAC00DB6803F02003202B07D17B681B686FF0E7
:101CBC0020021A61786800F03BFA00BF0837BD4675
:101CCC0080BD80B584B000AF786039607B6893F8D4
:101CDC003C30012B01D10223B3E07B68012283F855
:101CEC003C207B68022283F83D207B681B689B6844
:101CFC00FB60FB6823F07703FB60FB6823F47F43F6
:101D0C00FB607B681B68FA689A603B681B68B3F5DC
:101D1C00005F3ED0B3F5005F00F28780B3F5805FC3
:101D2C0000F08580B3F5805F7FD8702B1AD0702BB4
:101D3C007BD8602B50D0602B77D8502B3CD0502BBD
:101D4C0073D8402B58D0402B6FD8302B64D0302B0D
:101D5C006BD8202B60D0202B67D8002B5CD0102B9D
:101D6C005AD062E07B6818683B6899683B685A688F
:101D7C003B68DB6800F065F97B681B689B68FB605F
:101D8C00FB6843F07703FB607B681B68FA689A601A
:101D9C004EE07B6818683B6899683B685A683B68FA
:101DAC00DB6800F04EF97B681B689A687B681B68DF
:101DBC0042F480429A603BE07B6818683B68596843
:101DCC003B68DB681A4600F0C5F87B681B6850213D
:101DDC00184600F01CF92BE07B6818683B685968C2
:101DEC003B68DB681A4600F0E3F87B681B686021EF
:101DFC00184600F00CF91BE07B6818683B685968C2
:101E0C003B68DB681A4600F0A5F87B681B6840212C
:101E1C00184600F0FCF80BE07B681A683B681B68FE
:101E2C001946104600F0F3F802E000BF00E000BFD6
:101E3C007B68012283F83D207B68002283F83C20DC
:101E4C00002318461037BD4680BD80B483B000AF68
:101E5C00786000BF0C37BD4680BC704780B483B03F
:101E6C0000AF786000BF0C37BD4680BC704780B4B3
:101E7C0083B000AF786000BF0C37BD4680BC7047A4
:101E8C0080B483B000AF786000BF0C37BD4680BC17
:101E9C00704780B483B000AF786000BF0C37BD468C
:101EAC0080BC704780B485B000AF786039607B68C7
:101EBC001B68FB607B68254A934207D07B68B3F1B3
:101ECC00804F03D07B68224A934208D1FB6823F0F1
:101EDC007003FB603B685B68FA681343FB607B68CC
:101EEC001A4A934207D07B68B3F1804F03D07B68CA
:101EFC00174A934208D1FB6823F44073FB603B689C
:101F0C00DB68FA681343FB60FB6823F080023B68D4
:101F1C005B691343FB607B68FA681A603B689A68DC
:101F2C007B68DA623B681A687B689A627B68074A4E
:101F3C00934203D13B681A697B681A637B68012260
:101F4C005A6100BF1437BD4680BC7047002C01405D
:101F5C000004004080B487B000AFF860B9607A60CC
:101F6C00FB681B6A7B61FB681B6A23F00102FB6840
:101F7C001A62FB689B693B613B6923F0F0033B6190
:101F8C007B681B013A6913433B617B6923F00A03AD
:101F9C007B617A69BB6813437B61FB683A699A6120
:101FAC00FB687A691A6200BF1C37BD4680BC70475B
:101FBC0080B487B000AFF860B9607A60FB681B6AC8
:101FCC0023F01002FB681A62FB689B697B61FB685B
:101FDC001B6A3B617B6923F470437B617B681B0349
:101FEC007A6913437B613B6923F0A0033B61BB68B7
:101FFC001B013A6913433B61FB687A699A61FB6880
:10200C003A691A6200BF1C37BD4680BC704780B469
:10201C0085B000AF786039607B689B68FB60FB68BB
:10202C0023F07003FB603A68FB68134343F007032B
:10203C00FB607B68FA689A6000BF1437BD4680BCB1
:10204C00704780B487B000AFF860B9607A603B60CD
:10205C00FB689B687B617B6923F47F437B613B68F6
:10206C001A027B681A43BB6813437A6913437B617A
:10207C00FB687A699A6000BF1C37BD4680BC70470C
:10208C0080B485B000AF786039607B6893F83C30E1
:10209C00012B01D1022341E07B68012283F83C2013
:1020AC007B68022283F83D207B681B685B68FB60C1
:1020BC007B681B689B68BB60FB6823F07003FB604C
:1020CC003B681B68FA681343FB607B681B68FA6803
:1020DC005A607B681B68144A934209D07B681B6862
:1020EC00B3F1804F04D07B681B68104A93420CD12B
:1020FC00BB6823F08003BB603B685B68BA68134322
:10210C00BB607B681B68BA689A607B68012283F8A5
:10211C003D207B68002283F83C20002318461437AE
:10212C00BD4680BC704700BF002C0140000400403D
:10213C0080B483B000AF786000BF0C37BD4680BC64
:10214C00704780B483B000AF786000BF0C37BD46D9
:10215C0080BC704780B582B000AF78607B68002B84
:10216C0001D101233FE07B6893F83D30DBB2002BBB
:10217C0006D17B68002283F83C207868FEF7BEF914
:10218C007B68242283F83D207B681B68DA687B68B7
:10219C001B6822F40052DA60786800F029F87B683A
:1021AC001B681A697B681B6822F490421A617B6871
:1021BC001B685A697B681B6822F02A025A617B688B
:1021CC001B68DA687B681B6842F40052DA607B6833
:1021DC0000221A647B68202283F83D207B68202231
:1021EC0083F83E20002318460837BD4680BD00000A
:1021FC0080B584B000AF78607B681B681B6923F4E2
:10220C0040517B68DA687B681B680A431A617B68FB
:10221C009A687B681B691A437B685B691343BB60D4
:10222C007B681B68DB6823F4B05323F00C037A68DB
:10223C001268B9680B43D3607B681B685B6923F435
:10224C0040717B689A697B681B680A435A617B689A
:10225C001B682C4A934203D1FFF7F4FAF86002E0B2
:10226C00FFF7DCFAF860FA6813469B0013449A00F7
:10227C001A447B685B689B00B2FBF3F3224AA2FB17
:10228C0003235B091901FA6813469B0013449A0057
:10229C001A447B685B689B00B2FBF3F21A4BA3FBFE
:1022AC0002035B09642000FB03F3D31A1B013233D6
:1022BC00154AA2FB03235B0903F0F0031944FA68E7
:1022CC0013469B0013449A001A447B685B689B007E
:1022DC00B2FBF3F20C4BA3FB02035B09642000FB83
:1022EC0003F3D31A1B013233074AA2FB03235B0906
:1022FC0003F00F027B681B680A449A6000BF10371A
:10230C00BD4680BD003801401F85EB5170B50026DD
:10231C000C4D0D4C641BA410A64209D100F022F800
:10232C0000260A4D0A4C641BA410A64205D170BDB0
:10233C0055F8043B98470136EEE755F8043B9847AF
:10234C000136F2E7B0230008B0230008B0230008E0
:10235C00B423000803460244934200D1704703F8AB
:10236C00011BF9E7F8B500BFF8BC08BC9E467047E6
:0C237C00F8B500BFF8BC08BC9E467047D6
:1023880002030405060708090A0B0C0D0E0F1010AE
:10239800000000000000000001020304060708090D
:0823A800000000000102030423
:0423B00031010008EF
:0423B4000D0100080F
:0C23B8000024F4001000000001000000F0
:040000050800060DDC
:00000001FF
